{"project/contracts/PaymentGateway.sol":{"PaymentGateway":{"abi":[{"inputs":[{"internalType":"address","name":"_privacyPool","type":"address"}],"stateMutability":"nonpayable","type":"constructor"},{"inputs":[],"name":"AlreadyPaid","type":"error"},{"inputs":[],"name":"InvalidAmount","type":"error"},{"inputs":[],"name":"InvalidToken","type":"error"},{"inputs":[],"name":"InvoiceExists","type":"error"},{"inputs":[],"name":"InvoiceNotFound","type":"error"},{"inputs":[],"name":"NotAuthorized","type":"error"},{"anonymous":false,"inputs":[{"indexed":true,"internalType":"bytes32","name":"invoiceId","type":"bytes32"},{"indexed":true,"internalType":"address","name":"merchant","type":"address"},{"indexed":false,"internalType":"address","name":"token","type":"address"},{"indexed":false,"internalType":"uint256","name":"amount","type":"uint256"}],"name":"InvoiceCreated","type":"event"},{"anonymous":false,"inputs":[{"indexed":true,"internalType":"bytes32","name":"invoiceId","type":"bytes32"},{"indexed":true,"internalType":"address","name":"merchant","type":"address"},{"indexed":false,"internalType":"address","name":"token","type":"address"},{"indexed":false,"internalType":"uint256","name":"amount","type":"uint256"}],"name":"InvoicePaid","type":"event"},{"inputs":[{"internalType":"bytes32","name":"invoiceId","type":"bytes32"},{"internalType":"address","name":"token","type":"address"},{"internalType":"uint256","name":"amount","type":"uint256"}],"name":"createInvoice","outputs":[],"stateMutability":"nonpayable","type":"function"},{"inputs":[{"internalType":"bytes32","name":"invoiceId","type":"bytes32"}],"name":"getAmount","outputs":[{"internalType":"uint256","name":"","type":"uint256"}],"stateMutability":"view","type":"function"},{"inputs":[{"internalType":"bytes32","name":"invoiceId","type":"bytes32"}],"name":"getInvoice","outputs":[{"internalType":"address","name":"merchant","type":"address"},{"internalType":"address","name":"token","type":"address"},{"internalType":"uint256","name":"amount","type":"uint256"},{"internalType":"bool","name":"paid","type":"bool"},{"internalType":"bool","name":"exists","type":"bool"}],"stateMutability":"view","type":"function"},{"inputs":[{"internalType":"bytes32","name":"invoiceId","type":"bytes32"}],"name":"getMerchant","outputs":[{"internalType":"address","name":"","type":"address"}],"stateMutability":"view","type":"function"},{"inputs":[{"internalType":"bytes32","name":"invoiceId","type":"bytes32"}],"name":"getToken","outputs":[{"internalType":"address","name":"","type":"address"}],"stateMutability":"view","type":"function"},{"inputs":[{"internalType":"bytes32","name":"invoiceId","type":"bytes32"}],"name":"isPaid","outputs":[{"internalType":"bool","name":"","type":"bool"}],"stateMutability":"view","type":"function"},{"inputs":[{"internalType":"bytes32","name":"invoiceId","type":"bytes32"}],"name":"payInvoice","outputs":[{"internalType":"address","name":"merchant","type":"address"}],"stateMutability":"nonpayable","type":"function"},{"inputs":[],"name":"privacyPool","outputs":[{"internalType":"address","name":"","type":"address"}],"stateMutability":"view","type":"function"}],"evm":{"bytecode":{"linkReferences":{},"object":"60a060405234801561000f575f80fd5b506040516106cb3803806106cb83398101604081905261002e91610088565b6001600160a01b0381166100775760405162461bcd60e51b815260206004820152600c60248201526b125b9d985b1a59081c1bdbdb60a21b604482015260640160405180910390fd5b6001600160a01b03166080526100b5565b5f60208284031215610098575f80fd5b81516001600160a01b03811681146100ae575f80fd5b9392505050565b6080516105f76100d45f395f818161011a01526102a101526105f75ff3fe608060405234801561000f575f80fd5b5060043610610085575f3560e01c8063359b582d11610058578063359b582d14610102578063aa77250e14610115578063cb802c8b1461013c578063feef6640146101c1575f80fd5b80630e0a0d7414610089578063155bf4e2146100af578063222ab347146100da57806325ac5af8146100ed575b5f80fd5b61009c61009736600461056a565b6101f6565b6040519081526020015b60405180910390f35b6100c26100bd36600461056a565b610241565b6040516001600160a01b0390911681526020016100a6565b6100c26100e836600461056a565b610295565b6101006100fb366004610581565b6103be565b005b6100c261011036600461056a565b610519565b6100c27f000000000000000000000000000000000000000000000000000000000000000081565b61018a61014a36600461056a565b5f9081526020819052604090208054600182015460028301546003909301546001600160a01b039283169492909116929160ff8083169261010090041690565b604080516001600160a01b03968716815295909416602086015292840191909152151560608301521515608082015260a0016100a6565b6101e66101cf36600461056a565b5f9081526020819052604090206003015460ff1690565b60405190151581526020016100a6565b5f81815260208190526040812060030154610100900460ff1661022c57604051634d5c803960e11b815260040160405180910390fd5b505f9081526020819052604090206002015490565b5f81815260208190526040812060030154610100900460ff1661027757604051634d5c803960e11b815260040160405180910390fd5b505f908152602081905260409020600101546001600160a01b031690565b5f336001600160a01b037f000000000000000000000000000000000000000000000000000000000000000016146102df5760405163ea8e4eb560e01b815260040160405180910390fd5b5f82815260208190526040902060030154610100900460ff1661031557604051634d5c803960e11b815260040160405180910390fd5b5f8281526020819052604090206003015460ff161561034757604051630d70a0e360e41b815260040160405180910390fd5b505f818152602081815260409182902060038101805460ff1916600190811790915581549082015460029092015484516001600160a01b039384168152938401521691829184917f787fcac3b50ab9534e1ef2e289dfa2a75eb9481de9f9061d4773232074751582910160405180910390a3919050565b5f83815260208190526040902060030154610100900460ff16156103f55760405163d088d97160e01b815260040160405180910390fd5b805f036104155760405163162908e360e11b815260040160405180910390fd5b6001600160a01b03821661043c5760405163c1ab6dc160e01b815260040160405180910390fd5b6040805160a081018252338082526001600160a01b0385811660208085018281528587018881525f60608801818152600160808a018181528e8452838752928b902099518a549089166001600160a01b0319918216178b559451908a018054919098169416939093179095555160028701555160039095018054935115156101000261ff00199615159690961661ffff19909416939093179490941790915583519081529182018490529185917f4306dcd7002bbc4547a489ce8403b69225feddf486f71920a8748ce085d6fec6910160405180910390a3505050565b5f81815260208190526040812060030154610100900460ff1661054f57604051634d5c803960e11b815260040160405180910390fd5b505f908152602081905260409020546001600160a01b031690565b5f6020828403121561057a575f80fd5b5035919050565b5f805f60608486031215610593575f80fd5b8335925060208401356001600160a01b03811681146105b0575f80fd5b92959294505050604091909101359056fea264697066735822122075f354119cbf919a01deec7ea8aed87d301aacaea6e757ca6812d793f28cded164736f6c63430008140033","opcodes":"PUSH1 0xA0 PUSH1 0x40 MSTORE CALLVALUE DUP1 ISZERO PUSH2 0xF JUMPI PUSH0 DUP1 REVERT JUMPDEST POP PUSH1 0x40 MLOAD PUSH2 0x6CB CODESIZE SUB DUP1 PUSH2 0x6CB DUP4 CODECOPY DUP2 ADD PUSH1 0x40 DUP2 SWAP1 MSTORE PUSH2 0x2E SWAP2 PUSH2 0x88 JUMP JUMPDEST PUSH1 0x1 PUSH1 0x1 PUSH1 0xA0 SHL SUB DUP2 AND PUSH2 0x77 JUMPI PUSH1 0x40 MLOAD PUSH3 0x461BCD PUSH1 0xE5 SHL DUP2 MSTORE PUSH1 0x20 PUSH1 0x4 DUP3 ADD MSTORE PUSH1 0xC PUSH1 0x24 DUP3 ADD MSTORE PUSH12 0x125B9D985B1A59081C1BDBDB PUSH1 0xA2 SHL PUSH1 0x44 DUP3 ADD MSTORE PUSH1 0x64 ADD PUSH1 0x40 MLOAD DUP1 SWAP2 SUB SWAP1 REVERT JUMPDEST PUSH1 0x1 PUSH1 0x1 PUSH1 0xA0 SHL SUB AND PUSH1 0x80 MSTORE PUSH2 0xB5 JUMP JUMPDEST PUSH0 PUSH1 0x20 DUP3 DUP5 SUB SLT ISZERO PUSH2 0x98 JUMPI PUSH0 DUP1 REVERT JUMPDEST DUP2 MLOAD PUSH1 0x1 PUSH1 0x1 PUSH1 0xA0 SHL SUB DUP2 AND DUP2 EQ PUSH2 0xAE JUMPI PUSH0 DUP1 REVERT JUMPDEST SWAP4 SWAP3 POP POP POP JUMP JUMPDEST PUSH1 0x80 MLOAD PUSH2 0x5F7 PUSH2 0xD4 PUSH0 CODECOPY PUSH0 DUP2 DUP2 PUSH2 0x11A ADD MSTORE PUSH2 0x2A1 ADD MSTORE PUSH2 0x5F7 PUSH0 RETURN INVALID PUSH1 0x80 PUSH1 0x40 MSTORE CALLVALUE DUP1 ISZERO PUSH2 0xF JUMPI PUSH0 DUP1 REVERT JUMPDEST POP PUSH1 0x4 CALLDATASIZE LT PUSH2 0x85 JUMPI PUSH0 CALLDATALOAD PUSH1 0xE0 SHR DUP1 PUSH4 0x359B582D GT PUSH2 0x58 JUMPI DUP1 PUSH4 0x359B582D EQ PUSH2 0x102 JUMPI DUP1 PUSH4 0xAA77250E EQ PUSH2 0x115 JUMPI DUP1 PUSH4 0xCB802C8B EQ PUSH2 0x13C JUMPI DUP1 PUSH4 0xFEEF6640 EQ PUSH2 0x1C1 JUMPI PUSH0 DUP1 REVERT JUMPDEST DUP1 PUSH4 0xE0A0D74 EQ PUSH2 0x89 JUMPI DUP1 PUSH4 0x155BF4E2 EQ PUSH2 0xAF JUMPI DUP1 PUSH4 0x222AB347 EQ PUSH2 0xDA JUMPI DUP1 PUSH4 0x25AC5AF8 EQ PUSH2 0xED JUMPI JUMPDEST PUSH0 DUP1 REVERT JUMPDEST PUSH2 0x9C PUSH2 0x97 CALLDATASIZE PUSH1 0x4 PUSH2 0x56A JUMP JUMPDEST PUSH2 0x1F6 JUMP JUMPDEST PUSH1 0x40 MLOAD SWAP1 DUP2 MSTORE PUSH1 0x20 ADD JUMPDEST PUSH1 0x40 MLOAD DUP1 SWAP2 SUB SWAP1 RETURN JUMPDEST PUSH2 0xC2 PUSH2 0xBD CALLDATASIZE PUSH1 0x4 PUSH2 0x56A JUMP JUMPDEST PUSH2 0x241 JUMP JUMPDEST PUSH1 0x40 MLOAD PUSH1 0x1 PUSH1 0x1 PUSH1 0xA0 SHL SUB SWAP1 SWAP2 AND DUP2 MSTORE PUSH1 0x20 ADD PUSH2 0xA6 JUMP JUMPDEST PUSH2 0xC2 PUSH2 0xE8 CALLDATASIZE PUSH1 0x4 PUSH2 0x56A JUMP JUMPDEST PUSH2 0x295 JUMP JUMPDEST PUSH2 0x100 PUSH2 0xFB CALLDATASIZE PUSH1 0x4 PUSH2 0x581 JUMP JUMPDEST PUSH2 0x3BE JUMP JUMPDEST STOP JUMPDEST PUSH2 0xC2 PUSH2 0x110 CALLDATASIZE PUSH1 0x4 PUSH2 0x56A JUMP JUMPDEST PUSH2 0x519 JUMP JUMPDEST PUSH2 0xC2 PUSH32 0x0 DUP2 JUMP JUMPDEST PUSH2 0x18A PUSH2 0x14A CALLDATASIZE PUSH1 0x4 PUSH2 0x56A JUMP JUMPDEST PUSH0 SWAP1 DUP2 MSTORE PUSH1 0x20 DUP2 SWAP1 MSTORE PUSH1 0x40 SWAP1 KECCAK256 DUP1 SLOAD PUSH1 0x1 DUP3 ADD SLOAD PUSH1 0x2 DUP4 ADD SLOAD PUSH1 0x3 SWAP1 SWAP4 ADD SLOAD PUSH1 0x1 PUSH1 0x1 PUSH1 0xA0 SHL SUB SWAP3 DUP4 AND SWAP5 SWAP3 SWAP1 SWAP2 AND SWAP3 SWAP2 PUSH1 0xFF DUP1 DUP4 AND SWAP3 PUSH2 0x100 SWAP1 DIV AND SWAP1 JUMP JUMPDEST PUSH1 0x40 DUP1 MLOAD PUSH1 0x1 PUSH1 0x1 PUSH1 0xA0 SHL SUB SWAP7 DUP8 AND DUP2 MSTORE SWAP6 SWAP1 SWAP5 AND PUSH1 0x20 DUP7 ADD MSTORE SWAP3 DUP5 ADD SWAP2 SWAP1 SWAP2 MSTORE ISZERO ISZERO PUSH1 0x60 DUP4 ADD MSTORE ISZERO ISZERO PUSH1 0x80 DUP3 ADD MSTORE PUSH1 0xA0 ADD PUSH2 0xA6 JUMP JUMPDEST PUSH2 0x1E6 PUSH2 0x1CF CALLDATASIZE PUSH1 0x4 PUSH2 0x56A JUMP JUMPDEST PUSH0 SWAP1 DUP2 MSTORE PUSH1 0x20 DUP2 SWAP1 MSTORE PUSH1 0x40 SWAP1 KECCAK256 PUSH1 0x3 ADD SLOAD PUSH1 0xFF AND SWAP1 JUMP JUMPDEST PUSH1 0x40 MLOAD SWAP1 ISZERO ISZERO DUP2 MSTORE PUSH1 0x20 ADD PUSH2 0xA6 JUMP JUMPDEST PUSH0 DUP2 DUP2 MSTORE PUSH1 0x20 DUP2 SWAP1 MSTORE PUSH1 0x40 DUP2 KECCAK256 PUSH1 0x3 ADD SLOAD PUSH2 0x100 SWAP1 DIV PUSH1 0xFF AND PUSH2 0x22C JUMPI PUSH1 0x40 MLOAD PUSH4 0x4D5C8039 PUSH1 0xE1 SHL DUP2 MSTORE PUSH1 0x4 ADD PUSH1 0x40 MLOAD DUP1 SWAP2 SUB SWAP1 REVERT JUMPDEST POP PUSH0 SWAP1 DUP2 MSTORE PUSH1 0x20 DUP2 SWAP1 MSTORE PUSH1 0x40 SWAP1 KECCAK256 PUSH1 0x2 ADD SLOAD SWAP1 JUMP JUMPDEST PUSH0 DUP2 DUP2 MSTORE PUSH1 0x20 DUP2 SWAP1 MSTORE PUSH1 0x40 DUP2 KECCAK256 PUSH1 0x3 ADD SLOAD PUSH2 0x100 SWAP1 DIV PUSH1 0xFF AND PUSH2 0x277 JUMPI PUSH1 0x40 MLOAD PUSH4 0x4D5C8039 PUSH1 0xE1 SHL DUP2 MSTORE PUSH1 0x4 ADD PUSH1 0x40 MLOAD DUP1 SWAP2 SUB SWAP1 REVERT JUMPDEST POP PUSH0 SWAP1 DUP2 MSTORE PUSH1 0x20 DUP2 SWAP1 MSTORE PUSH1 0x40 SWAP1 KECCAK256 PUSH1 0x1 ADD SLOAD PUSH1 0x1 PUSH1 0x1 PUSH1 0xA0 SHL SUB AND SWAP1 JUMP JUMPDEST PUSH0 CALLER PUSH1 0x1 PUSH1 0x1 PUSH1 0xA0 SHL SUB PUSH32 0x0 AND EQ PUSH2 0x2DF JUMPI PUSH1 0x40 MLOAD PUSH4 0xEA8E4EB5 PUSH1 0xE0 SHL DUP2 MSTORE PUSH1 0x4 ADD PUSH1 0x40 MLOAD DUP1 SWAP2 SUB SWAP1 REVERT JUMPDEST PUSH0 DUP3 DUP2 MSTORE PUSH1 0x20 DUP2 SWAP1 MSTORE PUSH1 0x40 SWAP1 KECCAK256 PUSH1 0x3 ADD SLOAD PUSH2 0x100 SWAP1 DIV PUSH1 0xFF AND PUSH2 0x315 JUMPI PUSH1 0x40 MLOAD PUSH4 0x4D5C8039 PUSH1 0xE1 SHL DUP2 MSTORE PUSH1 0x4 ADD PUSH1 0x40 MLOAD DUP1 SWAP2 SUB SWAP1 REVERT JUMPDEST PUSH0 DUP3 DUP2 MSTORE PUSH1 0x20 DUP2 SWAP1 MSTORE PUSH1 0x40 SWAP1 KECCAK256 PUSH1 0x3 ADD SLOAD PUSH1 0xFF AND ISZERO PUSH2 0x347 JUMPI PUSH1 0x40 MLOAD PUSH4 0xD70A0E3 PUSH1 0xE4 SHL DUP2 MSTORE PUSH1 0x4 ADD PUSH1 0x40 MLOAD DUP1 SWAP2 SUB SWAP1 REVERT JUMPDEST POP PUSH0 DUP2 DUP2 MSTORE PUSH1 0x20 DUP2 DUP2 MSTORE PUSH1 0x40 SWAP2 DUP3 SWAP1 KECCAK256 PUSH1 0x3 DUP2 ADD DUP1 SLOAD PUSH1 0xFF NOT AND PUSH1 0x1 SWAP1 DUP2 OR SWAP1 SWAP2 SSTORE DUP2 SLOAD SWAP1 DUP3 ADD SLOAD PUSH1 0x2 SWAP1 SWAP3 ADD SLOAD DUP5 MLOAD PUSH1 0x1 PUSH1 0x1 PUSH1 0xA0 SHL SUB SWAP4 DUP5 AND DUP2 MSTORE SWAP4 DUP5 ADD MSTORE AND SWAP2 DUP3 SWAP2 DUP5 SWAP2 PUSH32 0x787FCAC3B50AB9534E1EF2E289DFA2A75EB9481DE9F9061D4773232074751582 SWAP2 ADD PUSH1 0x40 MLOAD DUP1 SWAP2 SUB SWAP1 LOG3 SWAP2 SWAP1 POP JUMP JUMPDEST PUSH0 DUP4 DUP2 MSTORE PUSH1 0x20 DUP2 SWAP1 MSTORE PUSH1 0x40 SWAP1 KECCAK256 PUSH1 0x3 ADD SLOAD PUSH2 0x100 SWAP1 DIV PUSH1 0xFF AND ISZERO PUSH2 0x3F5 JUMPI PUSH1 0x40 MLOAD PUSH4 0xD088D971 PUSH1 0xE0 SHL DUP2 MSTORE PUSH1 0x4 ADD PUSH1 0x40 MLOAD DUP1 SWAP2 SUB SWAP1 REVERT JUMPDEST DUP1 PUSH0 SUB PUSH2 0x415 JUMPI PUSH1 0x40 MLOAD PUSH4 0x162908E3 PUSH1 0xE1 SHL DUP2 MSTORE PUSH1 0x4 ADD PUSH1 0x40 MLOAD DUP1 SWAP2 SUB SWAP1 REVERT JUMPDEST PUSH1 0x1 PUSH1 0x1 PUSH1 0xA0 SHL SUB DUP3 AND PUSH2 0x43C JUMPI PUSH1 0x40 MLOAD PUSH4 0xC1AB6DC1 PUSH1 0xE0 SHL DUP2 MSTORE PUSH1 0x4 ADD PUSH1 0x40 MLOAD DUP1 SWAP2 SUB SWAP1 REVERT JUMPDEST PUSH1 0x40 DUP1 MLOAD PUSH1 0xA0 DUP2 ADD DUP3 MSTORE CALLER DUP1 DUP3 MSTORE PUSH1 0x1 PUSH1 0x1 PUSH1 0xA0 SHL SUB DUP6 DUP2 AND PUSH1 0x20 DUP1 DUP6 ADD DUP3 DUP2 MSTORE DUP6 DUP8 ADD DUP9 DUP2 MSTORE PUSH0 PUSH1 0x60 DUP9 ADD DUP2 DUP2 MSTORE PUSH1 0x1 PUSH1 0x80 DUP11 ADD DUP2 DUP2 MSTORE DUP15 DUP5 MSTORE DUP4 DUP8 MSTORE SWAP3 DUP12 SWAP1 KECCAK256 SWAP10 MLOAD DUP11 SLOAD SWAP1 DUP10 AND PUSH1 0x1 PUSH1 0x1 PUSH1 0xA0 SHL SUB NOT SWAP2 DUP3 AND OR DUP12 SSTORE SWAP5 MLOAD SWAP1 DUP11 ADD DUP1 SLOAD SWAP2 SWAP1 SWAP9 AND SWAP5 AND SWAP4 SWAP1 SWAP4 OR SWAP1 SWAP6 SSTORE MLOAD PUSH1 0x2 DUP8 ADD SSTORE MLOAD PUSH1 0x3 SWAP1 SWAP6 ADD DUP1 SLOAD SWAP4 MLOAD ISZERO ISZERO PUSH2 0x100 MUL PUSH2 0xFF00 NOT SWAP7 ISZERO ISZERO SWAP7 SWAP1 SWAP7 AND PUSH2 0xFFFF NOT SWAP1 SWAP5 AND SWAP4 SWAP1 SWAP4 OR SWAP5 SWAP1 SWAP5 OR SWAP1 SWAP2 SSTORE DUP4 MLOAD SWAP1 DUP2 MSTORE SWAP2 DUP3 ADD DUP5 SWAP1 MSTORE SWAP2 DUP6 SWAP2 PUSH32 0x4306DCD7002BBC4547A489CE8403B69225FEDDF486F71920A8748CE085D6FEC6 SWAP2 ADD PUSH1 0x40 MLOAD DUP1 SWAP2 SUB SWAP1 LOG3 POP POP POP JUMP JUMPDEST PUSH0 DUP2 DUP2 MSTORE PUSH1 0x20 DUP2 SWAP1 MSTORE PUSH1 0x40 DUP2 KECCAK256 PUSH1 0x3 ADD SLOAD PUSH2 0x100 SWAP1 DIV PUSH1 0xFF AND PUSH2 0x54F JUMPI PUSH1 0x40 MLOAD PUSH4 0x4D5C8039 PUSH1 0xE1 SHL DUP2 MSTORE PUSH1 0x4 ADD PUSH1 0x40 MLOAD DUP1 SWAP2 SUB SWAP1 REVERT JUMPDEST POP PUSH0 SWAP1 DUP2 MSTORE PUSH1 0x20 DUP2 SWAP1 MSTORE PUSH1 0x40 SWAP1 KECCAK256 SLOAD PUSH1 0x1 PUSH1 0x1 PUSH1 0xA0 SHL SUB AND SWAP1 JUMP JUMPDEST PUSH0 PUSH1 0x20 DUP3 DUP5 SUB SLT ISZERO PUSH2 0x57A JUMPI PUSH0 DUP1 REVERT JUMPDEST POP CALLDATALOAD SWAP2 SWAP1 POP JUMP JUMPDEST PUSH0 DUP1 PUSH0 PUSH1 0x60 DUP5 DUP7 SUB SLT ISZERO PUSH2 0x593 JUMPI PUSH0 DUP1 REVERT JUMPDEST DUP4 CALLDATALOAD SWAP3 POP PUSH1 0x20 DUP5 ADD CALLDATALOAD PUSH1 0x1 PUSH1 0x1 PUSH1 0xA0 SHL SUB DUP2 AND DUP2 EQ PUSH2 0x5B0 JUMPI PUSH0 DUP1 REVERT JUMPDEST SWAP3 SWAP6 SWAP3 SWAP5 POP POP POP PUSH1 0x40 SWAP2 SWAP1 SWAP2 ADD CALLDATALOAD SWAP1 JUMP INVALID LOG2 PUSH5 0x6970667358 0x22 SLT KECCAK256 PUSH22 0xF354119CBF919A01DEEC7EA8AED87D301AACAEA6E757 0xCA PUSH9 0x12D793F28CDED16473 PUSH16 0x6C634300081400330000000000000000 "},"methodIdentifiers":{"createInvoice(bytes32,address,uint256)":"25ac5af8","getAmount(bytes32)":"0e0a0d74","getInvoice(bytes32)":"cb802c8b","getMerchant(bytes32)":"359b582d","getToken(bytes32)":"155bf4e2","isPaid(bytes32)":"feef6640","payInvoice(bytes32)":"222ab347","privacyPool()":"aa77250e"}}}}}